:100000000C945E000C9486000C9486000C94860080
:100010000C9486000C9486000C9486000C94860048
:100020000C9486000C9486000C9486000C94860038
:100030000C9486000C9486000C9486000C94860028
:100040000C94AA040C9486000C941A050C94F404E5
:100050000C9486000C9486000C9486000C94860008
:100060000C9486000C9486000000000024002700F9
:100070002A0000000000250028002B0004040404CE
:100080000404040402020202020203030303030342
:10009000010204081020408001020408102001021F
:1000A00004081020000000080002010000030407FB
:1000B00000000000000000004C05410A11241FBE92
:1000C000CFEFD8E0DEBFCDBF22E0A8E3B1E001C0B2
:1000D0001D92A63CB207E1F711E0A0E0B1E0EEEB23
:1000E000FAE102C005900D92A833B107D9F710E0EC
:1000F000CDE5D0E004C02197FE010E940F0BCC3566
:10010000D107C9F70E94CA050C94520D0C94000047
:1001100090E0FC01EC55FF4F3491FC01E057FF4F9C
:100120002491FC01E458FF4FE491EE2309F43BC015
:10013000332339F1333091F038F43130A9F03230D3
:1001400001F584B58F7D12C0373091F03830A1F0C1
:100150003430B9F4809180008F7D03C0809180009D
:100160008F77809380000DC084B58F7784BD09C0E0
:100170008091B0008F7703C08091B0008F7D809315
:10018000B000F0E0EE0FFF1FEE58FF4FA591B491C5
:100190008FB7F894EC91611103C020952E2301C014
:1001A0002E2B2C938FBF0895FF920F931F93CF9305
:1001B000DF93F82EC7E0D0E00FE110E061E08F2D73
:1001C0000E948800C8010197F1F760E08F2D0E941E
:1001D0008800F8013197F1F7219781F7DF91CF91EE
:1001E0001F910F91FF900895CF93DF9390E0FC0152
:1001F000E057FF4F2491FC01E458FF4F849188237E
:1002000061F190E0880F991FFC01E859FF4FC591FB
:10021000D491FC01EE58FF4FA591B491611109C032
:100220009FB7F8948881209582238883EC912E23B0
:100230000BC0623061F49FB7F8943881822F8095AB
:1002400083238883EC912E2B2C939FBF06C08FB7FE
:10025000F894E8812E2B28838FBFDF91CF910895EA
:100260003FB7F8948091690190916A01A0916B0168
:10027000B0916C0126B5A89B05C02F3F19F00196DF
:10028000A11DB11D3FBFBA2FA92F982F8827820F1C
:10029000911DA11DB11DBC01CD0142E0660F771F6C
:1002A000881F991F4A95D1F70895CF92DF92EF9258
:1002B000FF920F931F93CF93DF936C017A018B0111
:1002C000C0E0D0E0CE15DF0589F0D8016D918D0139
:1002D000D601ED91FC910190F081E02DC6010995C8
:1002E000892B11F47E0102C02196ECCFC701DF916A
:1002F000CF911F910F91FF90EF90DF90CF900895D5
:10030000FC0144815581608171818DE691E00C94FE
:1003100055010895FC01918D828D981761F0828DB1
:10032000DF01A80FB11D5D968C91928D9F5F9F7329
:10033000928F90E008958FEF9FEF0895FC01918DCB
:10034000828D981731F0828DE80FF11D858D90E038
:1003500008958FEF9FEF0895FC01918D228D892FD5
:1003600090E0805C9F4F821B91098F7399270895BD
:100370008DE691E00E94AC0121E0892B09F420E098
:10038000822F0895FC01848DDF01A80FB11DA35AAF
:10039000BF4F2C91848D90E001968F739927848FA5
:1003A000A689B7892C93A089B1898C9180648C939C
:1003B000938D848D981306C00288F389E02D808187
:1003C0008F7D80830895EF92FF920F931F93CF93B9
:1003D000DF93EC0181E0888F9B8D8C8D981305C095
:1003E000E889F989808185FD24C0F62E0B8D10E007
:1003F0000F5F1F4F0F731127E02E8C8DE8120CC07A
:100400000FB607FCFACFE889F989808185FFF5CF1F
:10041000CE010E94C201F1CF8B8DFE01E80FF11DCC
:10042000E35AFF4FF0820B8FEA89FB89808180625B
:1004300007C0EE89FF896083E889F989808180643B
:10044000808381E090E0DF91CF911F910F91FF9029
:10045000EF900895CF93DF93EC01888D8823C9F046
:10046000EA89FB89808185FD05C0A889B9898C91BD
:1004700086FD0FC00FB607FCF5CF808185FFF2CF58
:10048000A889B9898C9185FFEDCFCE010E94C20168
:10049000E7CFDF91CF91089580E090E0892B29F09C
:1004A0000E94B80181110C94000008958F929F92D0
:1004B000AF92BF920F931F93CF93DF93CDB7DEB769
:1004C000A1970FB6F894DEBF0FBECDBF19A2423080
:1004D00008F44AE08E010F5D1F4F842E912CA12C51
:1004E000B12CA50194010E94ED0AE62FB901CA01C1
:1004F00001501109EA3014F4E05D01C0E95CD80153
:10050000EC93232B242B252B61F70115110571F09A
:10051000F80101900020E9F73197AF01401B510B22
:10052000B8018DE691E00E94550102C080E090E0A4
:10053000A1960FB6F894DEBF0FBECDBFDF91CF916D
:100540001F910F91BF90AF909F908F900895CF9281
:10055000DF92EF92FF92CF93DF936C01990FEE0839
:10056000FF08F7FE1AC0E0916D01F0916E01019055
:10057000F081E02D6DE28DE691E00995EC016627B2
:100580007727CB016C197D098E099F094AE00E94EB
:1005900056027C01EC0EFD1E06C04AE0C701B60102
:1005A0000E9456027C0142E050E066E171E08DE677
:1005B00091E00E9455018E0D9F1DDF91CF91FF901C
:1005C000EF90DF90CF9008950E940C0DFC01808188
:1005D0009181009711F00C94450A60E070E0CB0126
:1005E0000895FC01808191810C94AA0BCF93DF9335
:1005F000FC0124813581232B71F0FB01DC01CD91BD
:10060000DC9160817181CE010E94380D009719F054
:100610008C1B9D0B02C08FEF9FEFDF91CF91089550
:10062000FB0144815581FC01248135812417350764
:1006300078F080819181009759F0FB016081718190
:100640006115710529F00E942A0D21E0892B09F01E
:1006500020E0822F08950F931F93CF93DF93EC0137
:1006600088819981009729F02A813B8126173707D5
:1006700088F48B016F5F7F4F0E94420C009761F0FE
:10068000998388831B830A832C813D81232B11F45A
:10069000FC01108281E001C080E0DF91CF911F91C9
:1006A0000F910895EF92FF920F931F93CF93DF93D3
:1006B000FC01248135816115710511F480E019C0B8
:1006C00041155105A9F07B01EC018A01020F131FAE
:1006D000B8010E942B03882389F3288139818C81FA
:1006E0009D81B701820F931F0E94230D1D830C83F0
:1006F00081E0DF91CF911F910F91FF90EF900895CE
:10070000EF92FF920F931F93CF93DF93CDB7DEB796
:1007100028970FB6F894DEBF0FBECDBF7C01CB018A
:100720004AE08E010F5F1F4FB8010E946C0AF8016A
:1007300001900020E9F73197AF01401B510BB80140
:10074000C7010E94520328960FB6F894DEBF0FBE71
:10075000CDBFDF91CF911F910F91FF90EF90089542
:100760006115710551F0FB0101900020E9F7319707
:10077000AF01461B570B0C94520380E00895EF9293
:10078000FF920F931F93CF93DF93EC017B018A01BC
:10079000BA010E942B032881398181110DC02115D6
:1007A000310519F0C9010E94AA0B198218821D8215
:1007B0001C821B821A8206C01D830C83B701C901EB
:1007C0000E94230DCE01DF91CF911F910F91FF90D9
:1007D000EF900895FC01118210821382128215821B
:1007E00014826115710551F0FB0101900020E9F7B9
:1007F0003197AF01461B570B0C94BF030895BF926E
:10080000CF92DF92EF92FF920F931F93CF93DF93DC
:100810007C016B01EA0189012417350720F48D2F33
:10082000E901042F182F68E171E0C7010E94EA0373
:10083000D60114968D919C911597C817D907C8F5C4
:100840008017910708F48C01D601ED91FC91119766
:10085000E00FF11FB08010824D915C91BA016C0FD6
:100860007D1F6115710561F0FB0101900020E9F722
:100870003197AF01461B570BC7010E94BF0313C03E
:10088000F70180819181009711F00E94AA0BD70196
:1008900011961C921E9215961C921E9214971396F6
:1008A0001C921E921297D601ED91FC91E00FF11F60
:1008B000B082C701DF91CF911F910F91FF90EF9010
:1008C000DF90CF90BF900895AF92BF92CF92DF920A
:1008D000EF92FF920F931F93CF93DF93EC015B0195
:1008E0006A01790169E171E00E94EA03B501CE0174
:1008F0000E9480036BE171E0CE010E94B003B6015B
:10090000CE010E9480036DE171E0CE010E94B00330
:10091000B701CE010E9480036DE171E0CE010E941B
:10092000B003F8014481558160817181CE010E943C
:1009300052036FE171E0CE010E94B003CE01DF915E
:10094000CF911F910F91FF90EF90DF90CF90BF90CC
:10095000AF9008951F920F920FB60F9211242F930C
:100960003F938F939F93AF93BF9380910A0290918F
:100970000B02A0910C02B0910D023091680123E0AE
:10098000230F2D3720F40196A11DB11D05C026E8C7
:10099000230F0296A11DB11D2093680180930A02C6
:1009A00090930B02A0930C02B0930D028091690109
:1009B00090916A01A0916B01B0916C010196A11D0B
:1009C000B11D8093690190936A01A0936B01B0936C
:1009D0006C01BF91AF919F918F913F912F910F909B
:1009E0000FBE0F901F9018951F920F920FB60F9287
:1009F00011242F933F934F935F936F937F938F9324
:100A00009F93AF93BF93EF93FF938DE691E00E9486
:100A1000C201FF91EF91BF91AF919F918F917F9113
:100A20006F915F914F913F912F910F900FBE0F905B
:100A30001F9018951F920F920FB60F9211242F93AB
:100A40008F939F93EF93FF93E0917D01F0917E014F
:100A50008081E0918301F091840182FD12C0908138
:100A6000809186018F5F8F7320918701821751F0EB
:100A7000E0918601F0E0E359FE4F958F8093860167
:100A800001C08081FF91EF919F918F912F910F90E5
:100A90000FBE0F901F901895CF93DF9310927001A7
:100AA00010926F0188EE93E0A0E0B0E080937101B6
:100AB00090937201A0937301B09374018AE091E066
:100AC00090936E0180936D0185EC90E090937A0194
:100AD0008093790184EC90E090937C0180937B017A
:100AE00080EC90E090937E0180937D0181EC90E01A
:100AF0009093800180937F0182EC90E0909382013B
:100B00008093810186EC90E090938401809383012F
:100B1000109286011092870110928801109289012B
:100B200068E171E08CEB92E00E94EA0382E090E0E1
:100B300090930F0280930E0261E00E94F4008FB741
:100B4000F89440910A0250910B0260910C0270914E
:100B50000D028FBFCCE9D2E0E8E3F2E020E132E021
:100B6000199211921192D9014D935D936D937D93DA
:100B70009D01CF01825B9F4FDC011D921C92B2E070
:100B8000EC34FB0769F71092BB021092BA02DF91B6
:100B9000CF910895CF93DF93CDB7DEB7E1970FB62E
:100BA000F894DEBF0FBECDBF789484B5826084BD5B
:100BB00084B5816084BD85B5826085BD85B5816061
:100BC00085BD80916E00816080936E0010928100DF
:100BD000809181008260809381008091810081609A
:100BE000809381008091800081608093800080915B
:100BF000B10084608093B1008091B00081608093E7
:100C0000B00080917A00846080937A0080917A00AD
:100C1000826080937A0080917A00816080937A006C
:100C200080917A00806880937A001092C100E091F0
:100C30007D01F0917E0182E08083E0917901F09165
:100C40007A011082E0917B01F0917C018FEC80832E
:100C500010928501E0918101F091820186E080830C
:100C6000E0917F01F0918001808180618083E0913B
:100C70007F01F0918001808188608083E0917F0115
:100C8000F0918001808180688083E0917F01F09104
:100C9000800180818F7D808361E088E00E94F40084
:100CA00061E089E00E94F40060E083E00E94F400CB
:100CB0008091BA029091BB020A970CF050C0E8E311
:100CC000F2E080E090E021913191232B29F0019610
:100CD0008A309105C1F743C0FC01EE0FFF1FEE0FF4
:100CE000FF1FE45BFD4F42E350E060E070E04083B3
:100CF000518362837383FC01EE0FFF1FE85CFD4F9D
:100D000029E831E031832083FC01EE0FFF1FEC580E
:100D1000FD4F11821082FC01E456FD4F21E020833B
:100D20002FB7F89440910A0250910B0260910C0287
:100D300070910D022FBF880F991F880F991FFC011A
:100D4000E05FFD4F40835183628373838091BA02D9
:100D50009091BB0201969093BB028093BA028DE6FC
:100D600091E00E94AC01181619060CF58DE691E091
:100D70000E948A01E09138018E3379F0AE2FB0E005
:100D8000A95BBE4F8C93EF5FE03218F4E09338011B
:100D90000EC08FE1809338010AC0F0E0E95BFE4F9E
:100DA000808311821092380181E0809367018091E5
:100DB0006701882309F4A3C267E471E0CE014F966E
:100DC0000E94EA036DE171E0CE0101960E94EA0300
:100DD000BE016F5F7F4FCE014F960E94F6028C01DD
:100DE000CE0101960E94F102980141E050E0BE015F
:100DF000615E7F4FCE0149960E94FF030F5F1F4F38
:100E00002BA13CA121503109A801BE01615E7F4F99
:100E1000CE0143960E94FF032D8D3E8D2150310956
:100E2000A801BE01675E7F4FCE0101960E94FF03BD
:100E3000CE0101960E94E602162FC62ED72ECE01B5
:100E400001960E94F10261E271E0CE0101960E94DA
:100E5000EA03BE016F5F7F4FCE0149960E941003E7
:100E6000082FCE0101960E94F102002309F457C019
:100E70001E861D86188A1F861A8A198A6B897C89A4
:100E80006115710531F04F89588DCE010D960E9484
:100E9000BF0389899A89892B09F41FC2ED84FE84D6
:100EA00063E271E0C7010E941A0D892B99F460E09A
:100EB000812F0E94880067E271E0CE0107960E94B0
:100EC000EA038E01095F1F4F20E030E0A60160E0D9
:100ED00070E0F4C16DE271E0C7010E941A0D892B28
:100EE00009F0FBC161E0812F0E94880060E371E09E
:100EF000CE0101960E94EA038E010F5F1F4F20E092
:100F000030E0A60160E070E0CE0107960E94640424
:100F1000CE0107960E948001CE010796D9C165E3F4
:100F200071E0CE0101960E94EA03BE016F5F7F4F20
:100F3000CE0149960E941003182FCE0101960E94FF
:100F4000F102112309F4CDC11E861D86188A1F8661
:100F50001A8A198A6B897C896115710531F04F896C
:100F6000588DCE010D960E94BF036BE171E0CE015A
:100F700001960E94EA03BE016F5F7F4FCE010D967E
:100F80000E94F6028C01CE0101960E94F1026BE1F3
:100F900071E0CE0101960E94EA0389899A892D8128
:100FA0003E817C01E21AF30A2115310549F10097CF
:100FB00039F18217930720F1E816F90620F07C0139
:100FC00021E0E21AF108AD84BE8469807A80C5010F
:100FD00044244A9455245A9445018E0C9F1C88162B
:100FE000990690F0B3010E94380D009769F09C01BA
:100FF0002A193B09E216F30608F029010196EFCF02
:10100000EE24EA94FE2C01C07201CE0101960E94EA
:10101000F102980140E050E0BE01635F7F4FCE01D6
:1010200001960E94FF03CE0101960E94E6024B0149
:101030005C01CE0101960E94F102A8014F5F5F4F53
:101040009701BE01635F7F4FCE0101960E94FF03AF
:10105000CE0101960E94E6026BA78B01CE0101969C
:101060000E94F10229893A8921503109A7014F5F75
:101070005F4FBE01635F7F4FCE0101960E94FF0369
:10108000CE0101960E94E6022B013C01CE010196A1
:101090000E94F102C4010E94A702C8010E94A70297
:1010A000C2010E94A7029801220F331F3AA729A765
:1010B000F901E15CFE4F808191819801282B392B49
:1010C0003EA32DA31401689422F8C2013FE08327B8
:1010D000822593252DA13EA1282739273DA72CA79E
:1010E000E0903D01F0903E01E114F10421F404E0B0
:1010F0003BA5031B0FC0C70101978230910538F053
:101100000297029730F40D5F1F4F000F03C005E0F8
:1011100001C000E060E1069F40011124092C000C91
:10112000AA08BB080E9430019B01AC018114910404
:10113000A104B10421F12EA73FA748AB59AB0E94EF
:1011400030012EA53FA548A959A9DC01CB01821B7E
:10115000930BA40BB50B883E9340A105B10530F36A
:1011600081E0881A9108A108B10828513C4F4F4FDF
:101170005F4F81149104A104B104E9F6D7CF14E0C4
:10118000440C551C1A95E1F72CA53DA5422A532A7B
:101190008DA09EA004E0880C991C0A95E1F7822896
:1011A000932880913B0190913C018816990699F40F
:1011B0008091390190913A014816590661F434E062
:1011C000E316F104A4F46FEFE61AF60AF0923E017A
:1011D000E0923D010CC090923C0180923B01509204
:1011E0003A014092390110923E0110923D01F8946B
:1011F00000910E0210910F02C8010E94D40083EDED
:101200009FE00197F1F7A8E0EA2EF12CB0E8AB2EB1
:10121000B12CC8010E94D400C50188219921892BD5
:1012200019F083E898E002C08BE094E00197F1F7B1
:10123000B594A79481E0E81AF10859F778E0E72E11
:10124000F12CE0E8AE2EB12CC8010E94D400C501FB
:1012500084219521892B19F083E898E002C08BE066
:1012600094E00197F1F7B594A79491E0E91AF10899
:1012700059F7C8010E94D40083ED9FE00197F1F770
:101280007894E9A5FAA5E15CFE4F80819181892BD4
:1012900029F4A8E0B0E0B183A08302C011821082DB
:1012A00060E371E0CE0107960E94EA038E01095FB8
:1012B0001F4F22E030E0A60162E070E0CE0101960F
:1012C0000E946404CE0101960E948001CE01019625
:1012D0000E94F102C8010E94F102CE010D960E9407
:1012E000F102CE0143960E94F102CE0149960E947E
:1012F000F102CE014F960E94F102109267018FB762
:10130000F89480900A0290900B02A0900C02B0908A
:101310000D028FBF20E1222E22E0322E08E812E0DB
:10132000F80120E030E0EE24E394F12C52E0C52EE9
:10133000D12C178E168ECF0180559109DC018D912D
:101340009C91892B09F442C0D1014D915D916D9121
:101350007C911397DC964D905D906D907C90DF971B
:10136000D501C401841B950BA60BB70B84159505FD
:10137000A605B70558F1440D551D661D771DD10111
:101380004D935D936D937C931397C90184569D4F44
:10139000DC018C918823D1F0CF014497DC014D9181
:1013A0005C914115510519F4F78EE68E0FC08081CE
:1013B00091818417950754F4F78EE68E01969183F8
:1013C00080838417950714F0D78EC68E2F5F3F4F0A
:1013D000B4E02B0E311C32962A30310509F0A9CF2A
:1013E00088E3E82E82E0F82E9CE4C92E92E0D92E04
:1013F000A12CB12CF801868D978D8130910519F0C3
:10140000029731F02BC0D701ED91FC91099526C0D0
:10141000D701ED91FC9109958091BA029091BB02A0
:101420000097E1F0F70120813181232BB9F011827F
:101430001082F501E456FD4F1082D8015F961C9290
:101440001E925E97F60110821182128213821D9203
:101450001C9201979093BB028093BA02FFEFAF1AE0
:10146000BF0A22E0E20EF11C34E0C30ED11C0E5F75
:101470001F4F6AE0A616B10409F0BCCF0E944C02CF
:101480006ECC8CEB92E00C94F1021F93FC01992737
:101490008827BC01E89411911032E9F3193010F05B
:1014A0001E30C8F31B3251F01D3249F4689406C057
:1014B0000E94770A610F711D811D911D11911053BA
:1014C0001A30B0F33EF490958095709561957F4FFA
:1014D0008F4F9F4F1F910895BB274A3031F49923B6
:1014E00022F4BDE2909581959F4F0C948D0A592F5F
:1014F000482F372F262F660F771F881F991F660FDB
:10150000771F881F991F620F731F841F951F660F17
:10151000771F881F991F0895BB27FB015527AA270E
:10152000880F991FAA1FA41710F0A41B8395505170
:10153000B9F7A05DAA3308F0A95DA193009779F7E8
:10154000B111B1931192CB010C94A60ADC01FC01FC
:10155000672F71917723E1F7329704C07C916D93E7
:1015600070836291AE17BF07C8F308952F923F9220
:101570004F925F926F927F928F929F92AF92BF92A3
:10158000CF92DF92EF92FF920F931F93CF93DF934F
:10159000CDB7DEB7CA1BDB0B0FB6F894DEBF0FBEAC
:1015A000CDBF09942A88398848885F846E847D84F9
:1015B0008C849B84AA84B984C884DF80EE80FD80FB
:1015C0000C811B81AA81B981CE0FD11D0FB6F89471
:1015D000DEBF0FBECDBFED010895A1E21A2EAA1BFA
:1015E000BB1BFD010DC0AA1FBB1FEE1FFF1FA217D3
:1015F000B307E407F50720F0A21BB30BE40BF50BD0
:10160000661F771F881F991F1A9469F76095709558
:10161000809590959B01AC01BD01CF010895EE0F1F
:10162000FF1F0590F491E02D0994CF93DF93823052
:10163000910510F482E090E0E091C402F091C502BF
:1016400020E030E0C0E0D0E0309711F140815181DE
:1016500048175907C0F04817590761F482819381F0
:10166000209719F09B838A832BC09093C5028093A7
:10167000C40226C02115310519F04217530718F48A
:101680009A01BE01DF01EF010280F381E02DDCCF82
:101690002115310509F1281B390B2430310590F44F
:1016A00012968D919C9113976115710521F0FB01A4
:1016B0009383828304C09093C5028093C402FD018A
:1016C000329644C0FD01E20FF31F819391932250A3
:1016D00031092D933C933AC02091C2023091C3024C
:1016E000232B41F420910201309103013093C30276
:1016F0002093C20220910001309101012115310592
:1017000041F42DB73EB74091040150910501241BCF
:10171000350BE091C202F091C302E217F307A0F487
:101720002E1B3F0B2817390778F0AC014E5F5F4F37
:101730002417350748F04E0F5F1F5093C3024093A4
:10174000C2028193919302C0E0E0F0E0CF01DF910B
:10175000CF9108950F931F93CF93DF93009709F4D0
:101760008CC0FC013297138212820091C402109146
:10177000C5020115110581F420813181820F931F6B
:101780002091C2023091C3022817390779F5F093EE
:10179000C302E093C20271C0D80140E050E0AE172E
:1017A000BF0750F412962D913C911397AD0121156E
:1017B000310509F1D901F3CF9D01DA013383228389
:1017C00060817181860F971F8217930769F4EC017E
:1017D00028813981260F371F2E5F3F4F31832083A9
:1017E0008A819B8193838283452B29F4F093C502E0
:1017F000E093C40242C01396FC93EE931297ED015E
:10180000499159919E01240F351FE217F30771F496
:1018100080819181840F951F029611969C938E93DF
:101820008281938113969C938E931297E0E0F0E06F
:10183000D80112968D919C911397009719F0F80199
:101840008C01F6CF8D919C9198012E5F3F4F820FB6
:10185000931F2091C2023091C3022817390769F4FF
:10186000309729F41092C5021092C40202C013826C
:1018700012821093C3020093C202DF91CF911F9195
:101880000F910895A0E0B0E0E8E4FCE00C94BA0AFF
:10189000EC01009721F4CB010E94150BB8C0FC01AC
:1018A000E60FF71F9C0122503109E217F30708F4F5
:1018B000ACC0D9010D911C91119706171707B0F014
:1018C0000530110508F49FC0C801049786179707D3
:1018D00008F499C002501109061B170B01931193CC
:1018E0006D937C93CF010E94AA0B8DC05B01A01A5F
:1018F000B10A4C01800E911EA091C402B091C502A4
:1019000040E050E0E12CF12C109709F44AC0A815F2
:10191000B905D1F56D907C901197630182E0C80EF6
:10192000D11CCA14DB0480F1A3014A195B096A01C6
:1019300082E0C80ED11C1296BC9012971396AC91FF
:10194000B5E0CB16D10440F0B282A383518340832B
:10195000D9016D937C930AC00E5F1F4FC301800FA6
:10196000911FF90191838083EB2DFA2FE114F1048B
:1019700031F0D7011396FC93EE93129744C0F09385
:10198000C502E093C4023FC08D919C911197481706
:10199000590708F4AC017D0112960D90BC91A02D61
:1019A000B3CF8091C2029091C30288159905E1F4EA
:1019B00046175707C8F480910001909101010097E4
:1019C00041F48DB79EB74091040150910501841BED
:1019D000950BE817F907C8F4F093C302E093C2022D
:1019E000F901718360830FC0CB010E94150B7C014C
:1019F000009759F0A801BE010E94110DCE010E946E
:101A0000AA0BC70104C0CE0102C080E090E0CDB7B0
:101A1000DEB7EEE00C94D60A81E090E0F8940C94E6
:101A2000520DFB01DC0102C001900D92415050406B
:101A3000D8F70895FB01DC018D9101908019011008
:101A4000D9F3990B0895FB01DC0101900D92002060
:101A5000E1F70895FB01DC014150504030F08D91D9
:101A60000190801919F40020B9F7881B990B08958B
:101A7000FB0151915523A9F0BF01DC014D914517A0
:101A80004111E1F759F4CD010190002049F04D9149
:101A900040154111C9F3FB014111EFCF81E090E006
:101AA0000197089510E0CDE5D0E004C0FE010E944A
:0E1AB0000F0B2196CE35D107C9F7F894FFCF62
:101ABE000000C602800000000000E3015501AC01E9
:101ACE008A019E012A020D0A003C003A002C003EBB
:101ADE000030004F46460066616C7365004F4E0045
:081AEE007472756500320000FE
:00000001FF
