:100000000C945D000C9485000C9485000C94850084
:100010000C9485000C9485000C9485000C9485004C
:100020000C9485000C9485000C9485000C9485003C
:100030000C9485000C9485000C9485000C9485002C
:100040000C9429020C9485000C9499020C94730270
:100050000C9485000C9485000C9485000C9485000C
:100060000C9485000C9485000000000024002700FB
:100070002A0000000000250028002B0004040404CE
:100080000404040402020202020203030303030342
:10009000010204081020408001020408102001021F
:1000A00004081020000000080002010000030407FB
:1000B00000000000000000008C0311241FBECFEFE1
:1000C000D8E0DEBFCDBF11E0A0E0B1E0ECE8F7E0A2
:1000D00002C005900D92A031B107D9F721E0A0E14F
:1000E000B1E001C01D92A73BB207E1F710E0CDE5FA
:1000F000D0E004C02197FE010E94B903CC35D1079E
:10010000C9F70E94CB020C94C4030C94000090E049
:10011000FC01EC55FF4F3491FC01E057FF4F249157
:10012000FC01E458FF4FE491EE2309F43BC0332374
:1001300039F1333091F038F43130A9F0323001F533
:1001400084B58F7D12C0373091F03830A1F0343053
:10015000B9F4809180008F7D03C0809180008F77FB
:10016000809380000DC084B58F7784BD09C08091D5
:10017000B0008F7703C08091B0008F7D8093B00076
:10018000F0E0EE0FFF1FEE58FF4FA591B4918FB72F
:10019000F894EC91611103C020952E2301C02E2B01
:1001A0002C938FBF08953FB7F8948091B30190913D
:1001B000B401A091B501B091B60126B5A89B05C0C8
:1001C0002F3F19F00196A11DB11D3FBFBA2FA92FD6
:1001D000982F8827820F911DA11DB11DBC01CD0153
:1001E00042E0660F771F881F991F4A95D1F708953F
:1001F0008F929F92AF92BF92CF92DF92EF92FF9237
:100200000E94D3004B015C0184EFC82EDD24D394FF
:10021000E12CF12C0E94D300DC01CB018819990953
:10022000AA09BB09883E9340A105B10558F021E019
:10023000C21AD108E108F10888EE880E83E0981E02
:10024000A11CB11CC114D104E104F10419F7FF9001
:10025000EF90DF90CF90BF90AF909F908F900895D8
:10026000CF92DF92EF92FF920F931F93CF93DF9382
:100270006C017A018B01C0E0D0E0CE15DF0589F07A
:10028000D8016D918D01D601ED91FC910190F08125
:10029000E02DC6010995892B11F47E0102C021963B
:1002A000ECCFC701DF91CF911F910F91FF90EF909D
:1002B000DF90CF900895FC01918D828D981761F0A9
:1002C000828DDF01A80FB11D5D968C91928D9F5F8D
:1002D0009F73928F90E008958FEF9FEF0895FC0138
:1002E000918D828D981731F0828DE80FF11D858DEB
:1002F00090E008958FEF9FEF0895FC01918D228D7E
:10030000892F90E0805C9F4F821B91098F73992702
:10031000089581E191E00E947D0121E0892B09F49B
:1003200020E0822F0895FC01848DDF01A80FB11D0C
:10033000A35ABF4F2C91848D90E001968F7399271B
:10034000848FA689B7892C93A089B1898C91806408
:100350008C93938D848D981306C00288F389E02DC9
:1003600080818F7D80830895EF92FF920F931F937A
:10037000CF93DF93EC0181E0888F9B8D8C8D981358
:1003800005C0E889F989808185FD24C0F62E0B8D92
:1003900010E00F5F1F4F0F731127E02E8C8DE812B6
:1003A0000CC00FB607FCFACFE889F989808185FF78
:1003B000F5CFCE010E949301F1CF8B8DFE01E80FA6
:1003C000F11DE35AFF4FF0820B8FEA89FB89808190
:1003D000806207C0EE89FF896083E889F98980819E
:1003E0008064808381E090E0DF91CF911F910F9135
:1003F000FF90EF900895CF93DF93EC01888D8823D1
:10040000C9F0EA89FB89808185FD05C0A889B98981
:100410008C9186FD0FC00FB607FCF5CF808185FF5C
:10042000F2CFA889B9898C9185FFEDCFCE010E94CA
:100430009301E7CFDF91CF91089580E090E0892B81
:1004400029F00E94890181110C94000008950E94F6
:10045000BF031F920F920FB60F9211242F933F9359
:100460008F939F93AF93BF938091AF019091B00111
:10047000A091B101B091B2013091AE0123E0230F00
:100480002D3720F40196A11DB11D05C026E8230FCC
:100490000296A11DB11D2093AE018093AF019093F0
:1004A000B001A093B101B093B2018091B3019091DA
:1004B000B401A091B501B091B6010196A11DB11D85
:1004C0008093B3019093B401A093B501B093B601AA
:1004D000BF91AF919F918F913F912F910F900FBE40
:1004E0000F901F9018951F920F920FB60F92112424
:1004F0002F933F934F935F936F937F938F939F932C
:10050000AF93BF93EF93FF9381E191E00E9493013A
:10051000FF91EF91BF91AF919F918F917F916F91DB
:100520005F914F913F912F910F900FBE0F901F90B1
:1005300018951F920F920FB60F9211242F938F933D
:100540009F93EF93FF93E0912101F091220180812D
:10055000E0912701F091280182FD12C090818091E5
:100560002A018F5F8F7320912B01821751F0E09148
:100570002A01F0E0EF5EFE4F958F80932A0101C0C3
:100580008081FF91EF919F918F912F910F900FBEDE
:100590000F901F901895789484B5826084BD84B5BF
:1005A000816084BD85B5826085BD85B5816085BD6E
:1005B00080916E00816080936E0010928100809126
:1005C00081008260809381008091810081608093AE
:1005D0008100809180008160809380008091B100D3
:1005E00084608093B1008091B00081608093B000FE
:1005F00080917A00846080937A0080917A00826092
:1006000080937A0080917A00816080937A00809153
:100610007A00806880937A001092C100E0912101F5
:10062000F091220182E08083E0911D01F0911E0192
:100630001082E0911F01F09120018FEC80831092D5
:100640002901E0912501F091260186E08083E09167
:100650002301F0912401808180618083E091230156
:10066000F0912401808188608083E0912301F091E2
:100670002401808180688083E0912301F09124012E
:1006800080818F7D8083E8E9F0E02491E4E8F0E068
:100690008491882399F090E0880F991FFC01E85914
:1006A000FF4FA591B491FC01EE58FF4F85919491B5
:1006B0008FB7F894EC91E22BEC938FBF81E191E03E
:1006C0000E945B01C82F8093100181E191E00E949C
:1006D0007D01181619065CF4C13311F461E003C002
:1006E000C033B9F460E088E00E94870012C081E165
:1006F00091E00E947D0197FF0CC061E088E00E94BC
:1007000087000E94F80060E088E00E9487000E9455
:10071000F8000E941D02D2CFE1E1F1E013821282C3
:1007200088EE93E0A0E0B0E084839583A683B7834E
:1007300084E091E09183808385EC90E095878487C5
:1007400084EC90E09787868780EC90E0918B808B9B
:1007500081EC90E0938B828B82EC90E0958B848B84
:1007600086EC90E0978B868B118E128E138E148EF2
:100770000895EE0FFF1F0590F491E02D099481E09C
:0C07800090E0F8940C94C403F894FFCFB0
:10078C0000000000B40130017D015B016F01FB0131
:00000001FF
